{
  "_format": "hh3-artifact-1",
  "contractName": "RedPacket",
  "sourceName": "contracts/RedPacket.sol",
  "abi": [
    {
      "anonymous": false,
      "inputs": [
        {
          "indexed": true,
          "internalType": "address",
          "name": "grabber",
          "type": "address"
        },
        {
          "indexed": false,
          "internalType": "uint256",
          "name": "amount",
          "type": "uint256"
        },
        {
          "indexed": false,
          "internalType": "uint256",
          "name": "remainingCount",
          "type": "uint256"
        },
        {
          "indexed": false,
          "internalType": "uint256",
          "name": "remainingAmount",
          "type": "uint256"
        },
        {
          "indexed": false,
          "internalType": "enum RedPacket.GrabStatus",
          "name": "status",
          "type": "uint8"
        }
      ],
      "name": "GrabResult",
      "type": "event"
    },
    {
      "anonymous": false,
      "inputs": [
        {
          "indexed": false,
          "internalType": "uint256",
          "name": "remainingCount",
          "type": "uint256"
        },
        {
          "indexed": false,
          "internalType": "uint256",
          "name": "remainingAmount",
          "type": "uint256"
        }
      ],
      "name": "RedPacketFinished",
      "type": "event"
    },
    {
      "anonymous": false,
      "inputs": [
        {
          "indexed": true,
          "internalType": "address",
          "name": "creator",
          "type": "address"
        },
        {
          "indexed": false,
          "internalType": "uint256",
          "name": "totalAmount",
          "type": "uint256"
        },
        {
          "indexed": false,
          "internalType": "uint256",
          "name": "count",
          "type": "uint256"
        },
        {
          "indexed": false,
          "internalType": "bool",
          "name": "isEqual",
          "type": "bool"
        }
      ],
      "name": "RedPacketInitialized",
      "type": "event"
    },
    {
      "inputs": [],
      "name": "count",
      "outputs": [
        {
          "internalType": "uint256",
          "name": "",
          "type": "uint256"
        }
      ],
      "stateMutability": "view",
      "type": "function"
    },
    {
      "inputs": [],
      "name": "getBalance",
      "outputs": [
        {
          "internalType": "uint256",
          "name": "",
          "type": "uint256"
        }
      ],
      "stateMutability": "view",
      "type": "function"
    },
    {
      "inputs": [],
      "name": "grabRedPacket",
      "outputs": [],
      "stateMutability": "nonpayable",
      "type": "function"
    },
    {
      "inputs": [
        {
          "internalType": "uint256",
          "name": "c",
          "type": "uint256"
        },
        {
          "internalType": "bool",
          "name": "_isEqual",
          "type": "bool"
        }
      ],
      "name": "init",
      "outputs": [],
      "stateMutability": "payable",
      "type": "function"
    },
    {
      "inputs": [],
      "name": "isEqual",
      "outputs": [
        {
          "internalType": "bool",
          "name": "",
          "type": "bool"
        }
      ],
      "stateMutability": "view",
      "type": "function"
    },
    {
      "inputs": [
        {
          "internalType": "address",
          "name": "user",
          "type": "address"
        }
      ],
      "name": "isGrabbed",
      "outputs": [
        {
          "internalType": "bool",
          "name": "",
          "type": "bool"
        }
      ],
      "stateMutability": "view",
      "type": "function"
    },
    {
      "inputs": [],
      "name": "round",
      "outputs": [
        {
          "internalType": "uint256",
          "name": "",
          "type": "uint256"
        }
      ],
      "stateMutability": "view",
      "type": "function"
    },
    {
      "inputs": [],
      "name": "totalAmount",
      "outputs": [
        {
          "internalType": "uint256",
          "name": "",
          "type": "uint256"
        }
      ],
      "stateMutability": "view",
      "type": "function"
    },
    {
      "inputs": [],
      "name": "wy",
      "outputs": [
        {
          "internalType": "address payable",
          "name": "",
          "type": "address"
        }
      ],
      "stateMutability": "view",
      "type": "function"
    }
  ],
  "bytecode": "0x608060405234801561000f575f80fd5b50610e1f8061001d5f395ff3fe608060405260043610610085575f3560e01c80631a39d8ef116100585780631a39d8ef1461014357806340957f721461016d578063acbe845214610189578063c4712e21146101b3578063cd8b7e34146101c957610085565b806306661abd146100895780630ec0afc9146100b357806312065fe0146100ef578063146ca53114610119575b5f80fd5b348015610094575f80fd5b5061009d6101f3565b6040516100aa9190610741565b60405180910390f35b3480156100be575f80fd5b506100d960048036038101906100d491906107b8565b6101f9565b6040516100e691906107fd565b60405180910390f35b3480156100fa575f80fd5b50610103610243565b6040516101109190610741565b60405180910390f35b348015610124575f80fd5b5061012d61024a565b60405161013a9190610741565b60405180910390f35b34801561014e575f80fd5b50610157610250565b6040516101649190610741565b60405180910390f35b6101876004803603810190610182919061086a565b610256565b005b348015610194575f80fd5b5061019d61036d565b6040516101aa91906107fd565b60405180910390f35b3480156101be575f80fd5b506101c761037f565b005b3480156101d4575f80fd5b506101dd610706565b6040516101ea91906108c8565b60405180910390f35b60035481565b5f60045460055f8473ffffffffffffffffffffffffffffffffffffffff1673ffffffffffffffffffffffffffffffffffffffff1681526020019081526020015f2054149050919050565b5f47905090565b60045481565b60015481565b5f3411610298576040517f08c379a000000000000000000000000000000000000000000000000000000000815260040161028f9061093b565b60405180910390fd5b335f806101000a81548173ffffffffffffffffffffffffffffffffffffffff021916908373ffffffffffffffffffffffffffffffffffffffff160217905550816003819055508060025f6101000a81548160ff02191690831515021790555034600181905550600160045f8282546103109190610986565b925050819055503373ffffffffffffffffffffffffffffffffffffffff167f54e1aaf9f9524ea9dc72984f54fa64b85e2575ac53123605a9b6c11719f1a813348484604051610361939291906109b9565b60405180910390a25050565b60025f9054906101000a900460ff1681565b5f600354036103e4573373ffffffffffffffffffffffffffffffffffffffff167f0eb2f52f2ae4144d367ea853ecbc55c93bcd98f300b2495570a723065d0a7cce5f8060015460026040516103d79493929190610aa3565b60405180910390a2610704565b6103ed336101f9565b15610450573373ffffffffffffffffffffffffffffffffffffffff167f0eb2f52f2ae4144d367ea853ecbc55c93bcd98f300b2495570a723065d0a7cce5f60035460015460016040516104439493929190610ae6565b60405180910390a2610704565b5f600154036104b5573373ffffffffffffffffffffffffffffffffffffffff167f0eb2f52f2ae4144d367ea853ecbc55c93bcd98f300b2495570a723065d0a7cce5f6003545f60036040516104a89493929190610b29565b60405180910390a2610704565b60045460055f3373ffffffffffffffffffffffffffffffffffffffff1673ffffffffffffffffffffffffffffffffffffffff1681526020019081526020015f20819055505f60016003540361050e5760015490506105c7565b60025f9054906101000a900460ff1615610539576003546001546105329190610b99565b90506105c6565b5f60016008335f8054906101000a900473ffffffffffffffffffffffffffffffffffffffff166003546001544260405160200161057a959493929190610c56565b604051602081830303815290604052805190602001205f1c61059c9190610cb4565b6105a69190610986565b9050600a816001546105b89190610ce4565b6105c29190610b99565b9150505b5b5f81036105d357600190505b6001548111156105e35760015490505b3373ffffffffffffffffffffffffffffffffffffffff166108fc8290811502906040515f60405180830381858888f19350505050158015610626573d5f803e3d5ffd5b508060015f8282546106389190610d25565b9250508190555060035f81548092919061065190610d58565b91905055503373ffffffffffffffffffffffffffffffffffffffff167f0eb2f52f2ae4144d367ea853ecbc55c93bcd98f300b2495570a723065d0a7cce826003546001545f6040516106a69493929190610d7f565b60405180910390a25f60035414806106bf57505f600154145b15610702577f0b4323250b155c1faa5d1d06703456a3a031c36ac94cef744e03d8baf33e9e456003546001546040516106f9929190610dc2565b60405180910390a15b505b565b5f8054906101000a900473ffffffffffffffffffffffffffffffffffffffff1681565b5f819050919050565b61073b81610729565b82525050565b5f6020820190506107545f830184610732565b92915050565b5f80fd5b5f73ffffffffffffffffffffffffffffffffffffffff82169050919050565b5f6107878261075e565b9050919050565b6107978161077d565b81146107a1575f80fd5b50565b5f813590506107b28161078e565b92915050565b5f602082840312156107cd576107cc61075a565b5b5f6107da848285016107a4565b91505092915050565b5f8115159050919050565b6107f7816107e3565b82525050565b5f6020820190506108105f8301846107ee565b92915050565b61081f81610729565b8114610829575f80fd5b50565b5f8135905061083a81610816565b92915050565b610849816107e3565b8114610853575f80fd5b50565b5f8135905061086481610840565b92915050565b5f80604083850312156108805761087f61075a565b5b5f61088d8582860161082c565b925050602061089e85828601610856565b9150509250929050565b5f6108b28261075e565b9050919050565b6108c2816108a8565b82525050565b5f6020820190506108db5f8301846108b9565b92915050565b5f82825260208201905092915050565b7f616d6f756e74206d757374203e203000000000000000000000000000000000005f82015250565b5f610925600f836108e1565b9150610930826108f1565b602082019050919050565b5f6020820190508181035f83015261095281610919565b9050919050565b7f4e487b71000000000000000000000000000000000000000000000000000000005f52601160045260245ffd5b5f61099082610729565b915061099b83610729565b92508282019050808211156109b3576109b2610959565b5b92915050565b5f6060820190506109cc5f830186610732565b6109d96020830185610732565b6109e660408301846107ee565b949350505050565b5f819050919050565b5f819050919050565b5f610a1a610a15610a10846109ee565b6109f7565b610729565b9050919050565b610a2a81610a00565b82525050565b7f4e487b71000000000000000000000000000000000000000000000000000000005f52602160045260245ffd5b60048110610a6e57610a6d610a30565b5b50565b5f819050610a7e82610a5d565b919050565b5f610a8d82610a71565b9050919050565b610a9d81610a83565b82525050565b5f608082019050610ab65f830187610a21565b610ac36020830186610a21565b610ad06040830185610732565b610add6060830184610a94565b95945050505050565b5f608082019050610af95f830187610a21565b610b066020830186610732565b610b136040830185610732565b610b206060830184610a94565b95945050505050565b5f608082019050610b3c5f830187610a21565b610b496020830186610732565b610b566040830185610a21565b610b636060830184610a94565b95945050505050565b7f4e487b71000000000000000000000000000000000000000000000000000000005f52601260045260245ffd5b5f610ba382610729565b9150610bae83610729565b925082610bbe57610bbd610b6c565b5b828204905092915050565b5f8160601b9050919050565b5f610bdf82610bc9565b9050919050565b5f610bf082610bd5565b9050919050565b610c08610c038261077d565b610be6565b82525050565b5f610c1882610bd5565b9050919050565b610c30610c2b826108a8565b610c0e565b82525050565b5f819050919050565b610c50610c4b82610729565b610c36565b82525050565b5f610c618288610bf7565b601482019150610c718287610c1f565b601482019150610c818286610c3f565b602082019150610c918285610c3f565b602082019150610ca18284610c3f565b6020820191508190509695505050505050565b5f610cbe82610729565b9150610cc983610729565b925082610cd957610cd8610b6c565b5b828206905092915050565b5f610cee82610729565b9150610cf983610729565b9250828202610d0781610729565b91508282048414831517610d1e57610d1d610959565b5b5092915050565b5f610d2f82610729565b9150610d3a83610729565b9250828203905081811115610d5257610d51610959565b5b92915050565b5f610d6282610729565b91505f8203610d7457610d73610959565b5b600182039050919050565b5f608082019050610d925f830187610732565b610d9f6020830186610732565b610dac6040830185610732565b610db96060830184610a94565b95945050505050565b5f604082019050610dd55f830185610732565b610de26020830184610732565b939250505056fea2646970667358221220d1f3acae7dd4f60a95c245017bfd24c4297be045df21cfc86393f6e712d4129e64736f6c63430008150033",
  "linkReferences": {},
  "deployedLinkReferences": {},
  "immutableReferences": {},
  "inputSourceName": "project/contracts/RedPacket.sol",
  "buildInfoId": "solc-0_8_21-5e176b9cab19d5af3c0c55d98b514208fe6eb3c7"
}